:100000000EC020C01FC01FC02BC01CC01BC01AC008
:1000100019C018C017C016C015C014C013C01124D1
:100020001FBECFE5D2E0DEBFCDBF10E0A0E6B0E05E
:10003000E8E6F1E002C005900D92A836B107D9F7C5
:1000400055D090C0DDCF1F920F920FB60F921124A2
:1000500008B602FEC39A0F900FBE0F901F9018951E
:100060001F920F920FB60F921124C3980F900FBEDC
:100070000F901F901895CF93DF9300D0CDB7DEB7C8
:1000800088EC90E09A83898389819A819C01215030
:1000900031093A832983892BB9F70F900F90DF91AB
:1000A000CF910895EF92FF920F931F93CF93C1E0EA
:1000B000880F991F9C01205A3F4F7901660F771FC7
:1000C0008B01005A1F4FD701ED91FC91C083D801DD
:1000D000ED91FC919C2F90959083CDDFCF5F99F7A8
:1000E000CF911F910F91FF90EF90089587B38B618F
:1000F00087BB8AB5836F8ABD83B7836083BF8CB5A6
:1001000080678CBD80B7876080BF80B7806380BF09
:1001100089B7846489BF7894E0E6F0E0A481B58172
:10012000C681D781408151810280F381E02D8FEF1C
:100130008083FA01808388838C9363E070E082E09F
:1001400090E0B0DF60E070E083E090E0ABDF61E082
:1001500070E080E090E0A6DF62E070E081E090E097
:08016000A1DFEBCFF894FFCF03
:08016800490048004E004B0065
:00000001FF
